{
  "contractName": "SocialMusic",
  "abi": [
    {
      "inputs": [
        {
          "internalType": "address",
          "name": "",
          "type": "address"
        }
      ],
      "name": "users",
      "outputs": [
        {
          "internalType": "bytes32",
          "name": "name",
          "type": "bytes32"
        },
        {
          "internalType": "uint256",
          "name": "age",
          "type": "uint256"
        },
        {
          "internalType": "string",
          "name": "state",
          "type": "string"
        }
      ],
      "stateMutability": "view",
      "type": "function",
      "constant": true
    },
    {
      "inputs": [
        {
          "internalType": "string",
          "name": "_songName",
          "type": "string"
        }
      ],
      "name": "addSong",
      "outputs": [],
      "stateMutability": "nonpayable",
      "type": "function"
    },
    {
      "inputs": [
        {
          "internalType": "bytes32",
          "name": "_name",
          "type": "bytes32"
        },
        {
          "internalType": "uint256",
          "name": "_age",
          "type": "uint256"
        },
        {
          "internalType": "string",
          "name": "_state",
          "type": "string"
        }
      ],
      "name": "setup",
      "outputs": [],
      "stateMutability": "nonpayable",
      "type": "function"
    },
    {
      "inputs": [
        {
          "internalType": "address",
          "name": "_user",
          "type": "address"
        }
      ],
      "name": "follow",
      "outputs": [],
      "stateMutability": "nonpayable",
      "type": "function"
    }
  ],
  "bytecode": "0x608060405234801561001057600080fd5b50610a85806100206000396000f3fe608060405234801561001057600080fd5b5060043610610069576000357c0100000000000000000000000000000000000000000000000000000000900480634dbf27cc1461006e5780637f590f5e146100b2578063996fa3a51461016d578063a87430ba1461023c575b600080fd5b6100b06004803603602081101561008457600080fd5b81019080803573ffffffffffffffffffffffffffffffffffffffff169060200190929190505050610307565b005b61016b600480360360208110156100c857600080fd5b81019080803590602001906401000000008111156100e557600080fd5b8201836020820111156100f757600080fd5b8035906020019184600183028401116401000000008311171561011957600080fd5b91908080601f016020809104026020016040519081016040528093929190818152602001838380828437600081840152601f19601f8201169050808301925050505050505091929192905050506103e6565b005b61023a6004803603606081101561018357600080fd5b810190808035906020019092919080359060200190929190803590602001906401000000008111156101b457600080fd5b8201836020820111156101c657600080fd5b803590602001918460018302840111640100000000831117156101e857600080fd5b91908080601f016020809104026020016040519081016040528093929190818152602001838380828437600081840152601f19601f820116905080830192505050505050509192919290505050610480565b005b61027e6004803603602081101561025257600080fd5b81019080803573ffffffffffffffffffffffffffffffffffffffff16906020019092919050505061075a565b6040518084815260200183815260200180602001828103825283818151815260200191508051906020019080838360005b838110156102ca5780820151818401526020810190506102af565b50505050905090810190601f1680156102f75780820380516001836020036101000a031916815260200191505b5094505050505060405180910390f35b600073ffffffffffffffffffffffffffffffffffffffff168173ffffffffffffffffffffffffffffffffffffffff16141561034157600080fd5b6000803373ffffffffffffffffffffffffffffffffffffffff1673ffffffffffffffffffffffffffffffffffffffff168152602001908152602001600020600401819080600181540180825580915050600190039060005260206000200160009091909190916101000a81548173ffffffffffffffffffffffffffffffffffffffff021916908373ffffffffffffffffffffffffffffffffffffffff16021790555050565b600081511180156103f957506064815111155b61040257600080fd5b6000803373ffffffffffffffffffffffffffffffffffffffff1673ffffffffffffffffffffffffffffffffffffffff1681526020019081526020016000206003018190806001815401808255809150506001900390600052602060002001600090919091909150908051906020019061047c92919061081c565b5050565b6000602060ff161161049157600080fd5b6104996108aa565b6040518060a001604052808581526020018481526020018381526020016000803373ffffffffffffffffffffffffffffffffffffffff1673ffffffffffffffffffffffffffffffffffffffff168152602001908152602001600020600301805480602002602001604051908101604052809291908181526020016000905b828210156105d3578382906000526020600020018054600181600116156101000203166002900480601f0160208091040260200160405190810160405280929190818152602001828054600181600116156101000203166002900480156105bf5780601f10610594576101008083540402835291602001916105bf565b820191906000526020600020905b8154815290600101906020018083116105a257829003601f168201915b505050505081526020019060010190610517565b5050505081526020016000803373ffffffffffffffffffffffffffffffffffffffff1673ffffffffffffffffffffffffffffffffffffffff16815260200190815260200160002060040180548060200260200160405190810160405280929190818152602001828054801561069d57602002820191906000526020600020905b8160009054906101000a900473ffffffffffffffffffffffffffffffffffffffff1673ffffffffffffffffffffffffffffffffffffffff1681526020019060010190808311610653575b50505050508152509050806000803373ffffffffffffffffffffffffffffffffffffffff1673ffffffffffffffffffffffffffffffffffffffff1681526020019081526020016000206000820151816000015560208201518160010155604082015181600201908051906020019061071692919061081c565b5060608201518160030190805190602001906107339291906108dc565b50608082015181600401908051906020019061075092919061093c565b5090505050505050565b6000602052806000526040600020600091509050806000015490806001015490806002018054600181600116156101000203166002900480601f0160208091040260200160405190810160405280929190818152602001828054600181600116156101000203166002900480156108125780601f106107e757610100808354040283529160200191610812565b820191906000526020600020905b8154815290600101906020018083116107f557829003601f168201915b5050505050905083565b828054600181600116156101000203166002900490600052602060002090601f0160209004810192826108525760008555610899565b82601f1061086b57805160ff1916838001178555610899565b82800160010185558215610899579182015b8281111561089857825182559160200191906001019061087d565b5b5090506108a691906109c6565b5090565b6040518060a0016040528060008019168152602001600081526020016060815260200160608152602001606081525090565b82805482825590600052602060002090810192821561092b579160200282015b8281111561092a57825182908051906020019061091a92919061081c565b50916020019190600101906108fc565b5b50905061093891906109e3565b5090565b8280548282559060005260206000209081019282156109b5579160200282015b828111156109b45782518260006101000a81548173ffffffffffffffffffffffffffffffffffffffff021916908373ffffffffffffffffffffffffffffffffffffffff1602179055509160200191906001019061095c565b5b5090506109c291906109c6565b5090565b5b808211156109df5760008160009055506001016109c7565b5090565b5b80821115610a0357600081816109fa9190610a07565b506001016109e4565b5090565b50805460018160011615610100020316600290046000825580601f10610a2d5750610a4c565b601f016020900490600052602060002090810190610a4b91906109c6565b5b5056fea2646970667358221220a38aee428ba7b2ade00817426f0ce7a662eb35ea100abaf3166719396ec2831864736f6c63430007040033",
  "immutableReferences": {},
  "source": "pragma solidity 0.7.4;\n\ncontract SocialMusic {\n    struct User {\n        bytes32 name;\n        uint256 age;\n        string state;\n        string[] musicRecommendations;\n        address[] following;\n    }\n\n    mapping(address => User) public users;\n\n    // To add a new musical recommendation\n    function addSong(string memory _songName) public {\n        require(bytes(_songName).length > 0 && bytes(_songName).length <= 100);\n        users[msg.sender].musicRecommendations.push(_songName);\n    }\n\n    // To setup user information\n    function setup(bytes32 _name, uint256 _age, string memory _state) public {\n        require(_name.length > 0);\n        User memory newUser = User(_name, _age, _state, users[msg.sender].musicRecommendations, users[msg.sender].following);\n        users[msg.sender] = newUser;\n    }\n\n    // To follow new users\n    function follow(address _user) public {\n        require(_user != address(0));\n        users[msg.sender].following.push(_user);\n    }\n}\n",
  "sourcePath": "/home/rogue/dapp/contracts/SocialMusic.sol",
  "compiler": {
    "name": "solc",
    "version": "0.7.4+commit.3f05b770.Linux.g++"
  },
  "schemaVersion": "3.3.4",
  "updatedAt": "2021-02-17T01:19:59.843Z",
  "networkType": "ethereum",
  "devdoc": {
    "kind": "dev",
    "methods": {},
    "version": 1
  },
  "userdoc": {
    "kind": "user",
    "methods": {},
    "version": 1
  }
}