{
  "contractName": "SocialMusic",
  "abi": [
    {
      "inputs": [
        {
          "internalType": "uint256",
          "name": "",
          "type": "uint256"
        }
      ],
      "name": "userList",
      "outputs": [
        {
          "internalType": "address",
          "name": "",
          "type": "address"
        }
      ],
      "stateMutability": "view",
      "type": "function",
      "constant": true
    },
    {
      "inputs": [
        {
          "internalType": "address",
          "name": "",
          "type": "address"
        }
      ],
      "name": "users",
      "outputs": [
        {
          "internalType": "bytes32",
          "name": "name",
          "type": "bytes32"
        },
        {
          "internalType": "uint256",
          "name": "age",
          "type": "uint256"
        },
        {
          "internalType": "string",
          "name": "state",
          "type": "string"
        }
      ],
      "stateMutability": "view",
      "type": "function",
      "constant": true
    },
    {
      "inputs": [
        {
          "internalType": "string",
          "name": "_songName",
          "type": "string"
        }
      ],
      "name": "addSong",
      "outputs": [],
      "stateMutability": "nonpayable",
      "type": "function"
    },
    {
      "inputs": [
        {
          "internalType": "bytes32",
          "name": "_name",
          "type": "bytes32"
        },
        {
          "internalType": "uint256",
          "name": "_age",
          "type": "uint256"
        },
        {
          "internalType": "string",
          "name": "_state",
          "type": "string"
        }
      ],
      "name": "setup",
      "outputs": [],
      "stateMutability": "nonpayable",
      "type": "function"
    },
    {
      "inputs": [
        {
          "internalType": "address",
          "name": "_user",
          "type": "address"
        }
      ],
      "name": "follow",
      "outputs": [],
      "stateMutability": "nonpayable",
      "type": "function"
    },
    {
      "inputs": [],
      "name": "getUsersList",
      "outputs": [
        {
          "internalType": "address[]",
          "name": "",
          "type": "address[]"
        }
      ],
      "stateMutability": "view",
      "type": "function",
      "constant": true
    },
    {
      "inputs": [
        {
          "internalType": "address",
          "name": "_user",
          "type": "address"
        },
        {
          "internalType": "uint256",
          "name": "_recommendationIndex",
          "type": "uint256"
        }
      ],
      "name": "getUsersMusicRecommendation",
      "outputs": [
        {
          "internalType": "string",
          "name": "",
          "type": "string"
        }
      ],
      "stateMutability": "view",
      "type": "function",
      "constant": true
    },
    {
      "inputs": [
        {
          "internalType": "address",
          "name": "_user",
          "type": "address"
        }
      ],
      "name": "getUsersMusicRecommendationLength",
      "outputs": [
        {
          "internalType": "uint256",
          "name": "",
          "type": "uint256"
        }
      ],
      "stateMutability": "view",
      "type": "function",
      "constant": true
    },
    {
      "inputs": [
        {
          "internalType": "address",
          "name": "_user",
          "type": "address"
        }
      ],
      "name": "getUsersFollowings",
      "outputs": [
        {
          "internalType": "address[]",
          "name": "",
          "type": "address[]"
        }
      ],
      "stateMutability": "view",
      "type": "function",
      "constant": true
    }
  ],
  "bytecode": "0x608060405234801561001057600080fd5b50611081806100206000396000f3fe608060405234801561001057600080fd5b50600436106100b0576000357c010000000000000000000000000000000000000000000000000000000090048063996fa3a511610083578063996fa3a5146102d35780639f4216e8146103a2578063a87430ba146103fa578063c74e13f3146104c5578063ebf0724814610524576100b0565b80631e6abbb1146100b55780634dbf27cc1461017c5780637f590f5e146101c0578063971c6c7f1461027b575b600080fd5b610101600480360360408110156100cb57600080fd5b81019080803573ffffffffffffffffffffffffffffffffffffffff169060200190929190803590602001909291905050506105bd565b6040518080602001828103825283818151815260200191508051906020019080838360005b83811015610141578082015181840152602081019050610126565b50505050905090810190601f16801561016e5780820380516001836020036101000a031916815260200191505b509250505060405180910390f35b6101be6004803603602081101561019257600080fd5b81019080803573ffffffffffffffffffffffffffffffffffffffff1690602001909291905050506106b6565b005b610279600480360360208110156101d657600080fd5b81019080803590602001906401000000008111156101f357600080fd5b82018360208201111561020557600080fd5b8035906020019184600183028401116401000000008311171561022757600080fd5b91908080601f016020809104026020016040519081016040528093929190818152602001838380828437600081840152601f19601f820116905080830192505050505050509192919290505050610795565b005b6102bd6004803603602081101561029157600080fd5b81019080803573ffffffffffffffffffffffffffffffffffffffff16906020019092919050505061082f565b6040518082815260200191505060405180910390f35b6103a0600480360360608110156102e957600080fd5b8101908080359060200190929190803590602001909291908035906020019064010000000081111561031a57600080fd5b82018360208201111561032c57600080fd5b8035906020019184600183028401116401000000008311171561034e57600080fd5b91908080601f016020809104026020016040519081016040528093929190818152602001838380828437600081840152601f19601f82011690508083019250505050505050919291929050505061087d565b005b6103ce600480360360208110156103b857600080fd5b8101908080359060200190929190505050610bba565b604051808273ffffffffffffffffffffffffffffffffffffffff16815260200191505060405180910390f35b61043c6004803603602081101561041057600080fd5b81019080803573ffffffffffffffffffffffffffffffffffffffff169060200190929190505050610bf9565b6040518084815260200183815260200180602001828103825283818151815260200191508051906020019080838360005b8381101561048857808201518184015260208101905061046d565b50505050905090810190601f1680156104b55780820380516001836020036101000a031916815260200191505b5094505050505060405180910390f35b6104cd610cbb565b6040518080602001828103825283818151815260200191508051906020019060200280838360005b838110156105105780820151818401526020810190506104f5565b505050509050019250505060405180910390f35b6105666004803603602081101561053a57600080fd5b81019080803573ffffffffffffffffffffffffffffffffffffffff169060200190929190505050610d49565b6040518080602001828103825283818151815260200191508051906020019060200280838360005b838110156105a957808201518184015260208101905061058e565b505050509050019250505060405180910390f35b60606000808473ffffffffffffffffffffffffffffffffffffffff1673ffffffffffffffffffffffffffffffffffffffff168152602001908152602001600020600301828154811061060b57fe5b906000526020600020018054600181600116156101000203166002900480601f0160208091040260200160405190810160405280929190818152602001828054600181600116156101000203166002900480156106a95780601f1061067e576101008083540402835291602001916106a9565b820191906000526020600020905b81548152906001019060200180831161068c57829003601f168201915b5050505050905092915050565b600073ffffffffffffffffffffffffffffffffffffffff168173ffffffffffffffffffffffffffffffffffffffff1614156106f057600080fd5b6000803373ffffffffffffffffffffffffffffffffffffffff1673ffffffffffffffffffffffffffffffffffffffff168152602001908152602001600020600401819080600181540180825580915050600190039060005260206000200160009091909190916101000a81548173ffffffffffffffffffffffffffffffffffffffff021916908373ffffffffffffffffffffffffffffffffffffffff16021790555050565b600081511180156107a857506064815111155b6107b157600080fd5b6000803373ffffffffffffffffffffffffffffffffffffffff1673ffffffffffffffffffffffffffffffffffffffff1681526020019081526020016000206003018190806001815401808255809150506001900390600052602060002001600090919091909150908051906020019061082b929190610e18565b5050565b60008060008373ffffffffffffffffffffffffffffffffffffffff1673ffffffffffffffffffffffffffffffffffffffff168152602001908152602001600020600301805490509050919050565b6000602060ff161161088e57600080fd5b610896610ea6565b6040518060a001604052808581526020018481526020018381526020016000803373ffffffffffffffffffffffffffffffffffffffff1673ffffffffffffffffffffffffffffffffffffffff168152602001908152602001600020600301805480602002602001604051908101604052809291908181526020016000905b828210156109d0578382906000526020600020018054600181600116156101000203166002900480601f0160208091040260200160405190810160405280929190818152602001828054600181600116156101000203166002900480156109bc5780601f10610991576101008083540402835291602001916109bc565b820191906000526020600020905b81548152906001019060200180831161099f57829003601f168201915b505050505081526020019060010190610914565b5050505081526020016000803373ffffffffffffffffffffffffffffffffffffffff1673ffffffffffffffffffffffffffffffffffffffff168152602001908152602001600020600401805480602002602001604051908101604052809291908181526020018280548015610a9a57602002820191906000526020600020905b8160009054906101000a900473ffffffffffffffffffffffffffffffffffffffff1673ffffffffffffffffffffffffffffffffffffffff1681526020019060010190808311610a50575b50505050508152509050806000803373ffffffffffffffffffffffffffffffffffffffff1673ffffffffffffffffffffffffffffffffffffffff16815260200190815260200160002060008201518160000155602082015181600101556040820151816002019080519060200190610b13929190610e18565b506060820151816003019080519060200190610b30929190610ed8565b506080820151816004019080519060200190610b4d929190610f38565b509050506001339080600181540180825580915050600190039060005260206000200160009091909190916101000a81548173ffffffffffffffffffffffffffffffffffffffff021916908373ffffffffffffffffffffffffffffffffffffffff16021790555050505050565b60018181548110610bca57600080fd5b906000526020600020016000915054906101000a900473ffffffffffffffffffffffffffffffffffffffff1681565b6000602052806000526040600020600091509050806000015490806001015490806002018054600181600116156101000203166002900480601f016020809104026020016040519081016040528092919081815260200182805460018160011615610100020316600290048015610cb15780601f10610c8657610100808354040283529160200191610cb1565b820191906000526020600020905b815481529060010190602001808311610c9457829003601f168201915b5050505050905083565b60606001805480602002602001604051908101604052809291908181526020018280548015610d3f57602002820191906000526020600020905b8160009054906101000a900473ffffffffffffffffffffffffffffffffffffffff1673ffffffffffffffffffffffffffffffffffffffff1681526020019060010190808311610cf5575b5050505050905090565b60606000808373ffffffffffffffffffffffffffffffffffffffff1673ffffffffffffffffffffffffffffffffffffffff168152602001908152602001600020600401805480602002602001604051908101604052809291908181526020018280548015610e0c57602002820191906000526020600020905b8160009054906101000a900473ffffffffffffffffffffffffffffffffffffffff1673ffffffffffffffffffffffffffffffffffffffff1681526020019060010190808311610dc2575b50505050509050919050565b828054600181600116156101000203166002900490600052602060002090601f016020900481019282610e4e5760008555610e95565b82601f10610e6757805160ff1916838001178555610e95565b82800160010185558215610e95579182015b82811115610e94578251825591602001919060010190610e79565b5b509050610ea29190610fc2565b5090565b6040518060a0016040528060008019168152602001600081526020016060815260200160608152602001606081525090565b828054828255906000526020600020908101928215610f27579160200282015b82811115610f26578251829080519060200190610f16929190610e18565b5091602001919060010190610ef8565b5b509050610f349190610fdf565b5090565b828054828255906000526020600020908101928215610fb1579160200282015b82811115610fb05782518260006101000a81548173ffffffffffffffffffffffffffffffffffffffff021916908373ffffffffffffffffffffffffffffffffffffffff16021790555091602001919060010190610f58565b5b509050610fbe9190610fc2565b5090565b5b80821115610fdb576000816000905550600101610fc3565b5090565b5b80821115610fff5760008181610ff69190611003565b50600101610fe0565b5090565b50805460018160011615610100020316600290046000825580601f106110295750611048565b601f0160209004906000526020600020908101906110479190610fc2565b5b5056fea2646970667358221220fa99b7d99039817e22add177002c72f4e19af792aba0394c539aec62c03c414564736f6c63430007040033",
  "immutableReferences": {},
  "source": "pragma solidity 0.7.4;\n\ncontract SocialMusic {\n    struct User {\n        bytes32 name;\n        uint256 age;\n        string state;\n        string[] musicRecommendations;\n        address[] following;\n    }\n\n    mapping(address => User) public users;\n    address[] public userList;\n\n    // To add a new musical recommendation\n    function addSong(string memory _songName) public {\n        require(bytes(_songName).length > 0 && bytes(_songName).length <= 100);\n        users[msg.sender].musicRecommendations.push(_songName);\n    }\n\n    // To setup user information\n    function setup(bytes32 _name, uint256 _age, string memory _state) public {\n        require(_name.length > 0);\n        User memory newUser = User(_name, _age, _state, users[msg.sender].musicRecommendations, users[msg.sender].following);\n        users[msg.sender] = newUser;\n        userList.push(msg.sender);\n    }\n\n    // To follow new users\n    function follow(address _user) public {\n        require(_user != address(0));\n        users[msg.sender].following.push(_user);\n    }\n\n    // Returns the array of users\n    function getUsersList() public view returns(address[] memory) {\n        return userList;\n    }\n\n    // Return the music recommendations\n    function getUsersMusicRecommendation(address _user, uint256 _recommendationIndex) public view returns(string memory) {\n        return users[_user].musicRecommendations[_recommendationIndex];\n    }\n\n    // Returns how many music recommendations that user has\n    function getUsersMusicRecommendationLength(address _user) public view returns(uint256) {\n        return users[_user].musicRecommendations.length;\n    }\n\n    // Returns the addresses of the users _user is following\n    function getUsersFollowings(address _user) public view returns(address[] memory) {\n        return users[_user].following;\n    }\n}\n",
  "sourcePath": "/home/rogue/dapp/contracts/SocialMusic.sol",
  "compiler": {
    "name": "solc",
    "version": "0.7.4+commit.3f05b770.Linux.g++"
  },
  "schemaVersion": "3.3.4",
  "updatedAt": "2021-02-25T13:35:46.813Z",
  "networkType": "ethereum",
  "devdoc": {
    "kind": "dev",
    "methods": {},
    "version": 1
  },
  "userdoc": {
    "kind": "user",
    "methods": {},
    "version": 1
  }
}